:100000000C9456000C9468000C9468000C946800E2
:100010000C9468000C9468000C9468000C946800C0
:100020000C9468000C9468000C9468000C946800B0
:100030000C9468000C9468000C9468000C946800A0
:100040000C9468000C9468000C9468000C94680090
:100050000C9468000C9468000C9468000C94680080
:100060000C9468000C9468000C9468000C94680070
:100070000C9468000C9468000C9468000C94680060
:100080000C9468000C9468000C9468000C94680050
:100090000C9468000C9468000C9468000C94680040
:1000A0000C9468000C9468000C94680011241FBE26
:1000B000CFEFCDBFDFE2DEBF20E2A0E0B0E201C0C3
:1000C0001D92A130B207E1F70E94C1000C94E1003B
:1000D0000C94000082E080935000E0E5F0E0818124
:1000E00081FFFDCF88ED84BF81E0809340000895BB
:1000F000E0E0F6E0818180618183E0E4F6E08181E7
:100100008063818386818061868385818062858327
:100110000895E0ECF9E093E094839CE0968390E40A
:1001200097839381977F9383882331F0E0E6F6E00D
:1001300086858061868705C0E0E6F6E086858F7E4D
:100140008687E0E6F6E088E0818384E08283E0EC65
:10015000F9E083818860838383818061838308954C
:10016000E0ECF9E0918195FFFDCF8093C0090895FF
:100170008091C10988231CF48091C009089580E012
:1001800008950E946A0080E00E9489000E94780021
:1001900000E016E00E94B800C82F8093002088235A
:1001A000C9F30E94B000C03329F4F8018681806150
:1001B0008683F0CFC13371F7F80185818061858333
:0601C000E9CFF894FFCF27
:00000001FF
