:1000000010C02AC029C028C027C026C025C024C0CF
:1000100023C022C021C020C01FC01EC01DC01CC0E4
:100020001BC011241FBECFE5D1E0DEBFCDBF10E065
:10003000A0E6B0E0EAEDF1E002C005900D92A6372F
:10004000B107D9F720E0A6E7B0E001C01D92A837BC
:10005000B207E1F7ABD0BFC0D3CFFC019081862FB0
:1000600080959823908398E39A95F1F700C040FF1C
:1000700004C09081962B908303C090819823908335
:1000800098E39A95F1F700C041FF04C09081962B48
:10009000908303C090819823908398E39A95F1F719
:1000A00000C042FF04C09081962B908303C09081D2
:1000B0009823908398E39A95F1F700C043FF04C01A
:1000C0009081962B908303C090819823908398E32E
:1000D0009A95F1F700C044FF04C09081962B90835D
:1000E00003C090819823908398E39A95F1F700C01C
:1000F00045FF04C09081962B908303C09081982384
:10010000908398E39A95F1F700C046FF04C0908170
:10011000962B908303C090819823908398E39A95BF
:10012000F1F700C0442324F48081862B808303C030
:1001300090818923808388E38A95F1F700C08081CC
:10014000682B608398E39A95F1F700C088E38A955D
:10015000F1F700C00895FF920F931F93CF93DF93A1
:10016000EC01F62E8A011092770010927600E09151
:100170007600F0917700E00FF11F40816F2DCE01E6
:100180006CDF8091760090917700019690937700D4
:1001900080937600F801E80FF91F80818111E7CF85
:1001A000DF91CF911F910F91FF90089580E886BD58
:1001B00016BCD99AD19A40E650E062E08BE390E019
:1001C000CADF2FEF88E09DE3215080409040E1F7A7
:0A01D00000C00000F0CFF894FFCF4C
:1001DA0048454C4C4F2077686174206175666F659D
:0601EA006175680A0000C7
:00000001FF
