:100000000C9456000C946B000C946B000C946B00D9
:100010000C946B000C946B000C946B000C946B00B4
:100020000C946B000C946B000C946B000C946B00A4
:100030000C946B000C946B000C946B000C946B0094
:100040000C946B000C946B000C946B000C946B0084
:100050000C946B000C946B000C946B000C946B0074
:100060000C946B000C946B000C946B000C946B0064
:100070000C946B000C946B000C946B000C946B0054
:100080000C946B000C946B000C946B000C946B0044
:100090000C946B000C946B000C946B000C946B0034
:1000A0000C946B000C946B000C946B0011241FBE1D
:1000B000CFEFCDBFDFE2DEBF10E2A0E0B0E2EAEBBF
:1000C000F7E002C005900D92A431B107D9F70E9464
:1000D000C2000C94DB030C94000082E0809350007B
:1000E000E0E5F0E0818181FFFDCF88ED84BF81E014
:1000F000809340000895E0ECF9E093E0948397E169
:10010000968394EA97839381977F9383882331F032
:10011000E0E6F6E086858061868705C0E0E6F6E0E9
:1001200086858F7E8687E0E6F6E088E0818384E03E
:100130008283E0ECF9E0838188608383838180613E
:1001400083830895E0ECF9E0918195FFFDCF8093E2
:10015000C0090895CF93DF93EC018881882331F0A3
:1001600021960E94A20089918111FBCFDF91CF914E
:1001700008958091C10988231CF48091C0090895D5
:1001800080E00895CF93DF93CDB7DEB7C456D10991
:10019000CDBFDEBF0E946D0080E00E947B000F2E6D
:1001A000F0E0EF2EF0E2FF2EF02D8E010F5F1F4FDB
:1001B0000E94B9008823E1F31F928F93FF92EF9280
:1001C0001F930F930E94F700C8010E94AA002FEF0F
:1001D00083EC99E0215080409040E1F700C000009E
:1001E0000F900F900F900F900F900F90E1CFAEE017
:1001F000B0E0EDEFF0E00C94B8030D891E8986E0C5
:100200008C8309831A838FEF9FE78D839E83AE01D2
:10021000475E5F4F6F89788DCE0101960E9419016C
:10022000EF81F885E00FF11F10822E96E4E00C9428
:10023000D103ABE0B0E0EFE1F1E00C94AA036C0174
:100240007B018A01FC0116821782838181FFCCC168
:10025000CE0101963C01F6019381F70193FD859152
:1002600093FF81917F01882309F4BAC1853239F463
:1002700093FD859193FF81917F01853229F4B60129
:1002800090E00E941003E7CF912C212C312CFFE14C
:10029000F315D8F08B3279F038F4803279F083326C
:1002A000A1F4232D20611DC08D3261F0803369F4EB
:1002B000232D216016C0832D8260382EE32DE4604B
:1002C0003E2E2AC0F32DF8601DC037FC2DC020ED56
:1002D000280F2A3040F08E32B9F436FC81C1232D2C
:1002E0002064322E19C036FE06C08AE0989E200D8A
:1002F0001124922E11C0EAE02E9E200D1124222EF0
:10030000F32DF0623F2E08C08C3621F4832D8068D7
:10031000382E02C0883641F4F70193FD859193FF92
:1003200081917F018111B3CF982F9F7D9554933098
:1003300028F40C5F1F4F9FE399830DC0833631F083
:10034000833771F0833509F059C021C0F8018081ED
:1003500089830E5F1F4F88248394912C530113C00F
:100360002801F2E04F0E511CF801A080B18036FE4A
:1003700003C0692D70E002C06FEF7FEFC5010E94DE
:1003800005034C018201F32DFF773F2E16C0280193
:1003900022E0420E511CF801A080B18036FE03C05D
:1003A000692D70E002C06FEF7FEFC5010E94FA0275
:1003B0004C01F32DF0683F2E820133FC1BC0822DCF
:1003C00090E088169906B0F4B60180E290E00E94B1
:1003D00010032A94F4CFF50137FC859137FE819103
:1003E0005F01B60190E00E94100321102A9421E0E1
:1003F000821A91088114910471F7E8C0843611F0D3
:10040000893641F5F80137FE07C06081718182812C
:1004100093810C5F1F4F08C060817181072E000C13
:10042000880B990B0E5F1F4FF32DFF763F2E97FF22
:1004300009C090958095709561957F4F8F4F9F4F24
:10044000F0683F2E2AE030E0A3010E944C03882E82
:10045000861845C0853731F4232D2F7EB22E2AE031
:1004600030E025C0932D997FB92E8F36C1F018F456
:10047000883579F0B5C0803719F0883721F0B0C0E1
:10048000E92FE061BE2EB4FE0DC0FB2DF460BF2E3F
:1004900009C034FE0AC0292F2660B22E06C028E00B
:1004A00030E005C020E130E002C020E132E0F80198
:1004B000B7FE07C060817181828193810C5F1F4FFD
:1004C00006C06081718180E090E00E5F1F4FA30144
:1004D0000E944C03882E8618FB2DFF773F2E36FE98
:1004E0000DC0232D2E7FA22E891458F434FE0BC08C
:1004F00032FC09C0832D8E7EA82E05C0B82CA32CFB
:1005000003C0B82C01C0B92CA4FE0FC0FE01E80D39
:10051000F11D8081803321F49A2D997EA92E09C086
:10052000A2FE06C0B394B39404C08A2D867809F065
:10053000B394A3FC11C0A0FE06C0B21488F4280C2A
:10054000922C9B180EC0B21460F4B60180E290E0C9
:100550000E941003B394F7CFB21418F42B1802C002
:10056000982C212CA4FE10C0B60180E390E00E94DC
:100570001003A2FE17C0A1FC03C088E790E002C0F0
:1005800088E590E0B6010CC08A2D867859F0A1FE6E
:1005900002C08BE201C080E2A7FC8DE2B60190E0D0
:1005A0000E941003891438F4B60180E390E00E94A1
:1005B00010039A94F7CF8A94F301E80DF11D80811E
:1005C000B60190E00E9410038110F5CF222009F4BB
:1005D00042CEB60180E290E00E9410032A94F6CF4A
:1005E000F6018681978102C08FEF9FEF2B96E2E1A3
:1005F0000C94C303FC010590615070400110D8F7C2
:10060000809590958E0F9F1F0895FC01615070405A
:1006100001900110D8F7809590958E0F9F1F089537
:100620000F931F93CF93DF93FB01238121FD03C021
:100630008FEF9FEF2CC022FF16C046815781248187
:1006400035814217530744F4A081B1819D012F5F8A
:100650003F4F208331838C93268137812F5F3F4F1B
:100660002683378314C08B01EC01FB010084F185E4
:10067000E02D0995892BE1F6D80116968D919C9174
:100680001797019616968D939C931797CE01DF913D
:10069000CF911F910F910895FA01AA27283051F1A7
:1006A000203181F1E8946F936E7F6E5F7F4F8F4FA3
:1006B0009F4FAF4FB1E03ED0B4E03CD0670F781F02
:1006C000891F9A1FA11D680F791F8A1F911DA11DE7
:1006D0006A0F711D811D911DA11D20D009F4689420
:1006E0003F912AE0269F11243019305D3193DEF6C8
:1006F000CF010895462F4770405D4193B3E00FD07E
:10070000C9F7F6CF462F4F70405D4A3318F0495D68
:1007100031FD4052419302D0A9F7EACFB4E0A6954B
:100720009795879577956795BA95C9F7009761056D
:10073000710508959B01AC010A2E069457954795C3
:1007400037952795BA95C9F7620F731F841F951FB8
:10075000A01D08952F923F924F925F926F927F92C9
:100760008F929F92AF92BF92CF92DF92EF92FF92C1
:100770000F931F93CF93DF93CDB7DEB7CA1BDB0B6D
:10078000CDBFDEBF09942A88398848885F846E848B
:100790007D848C849B84AA84B984C884DF80EE80A5
:1007A000FD800C811B81AA81B981CE0FD11DCDBFE7
:0A07B000DEBFED010895F894FFCFBD
:1007BA00596F75206A7573742074797065643A206C
:0407CA0025630A0099
:00000001FF
