:100000000C9456000C946B000C946B000C946B00D9
:100010000C946B000C946B000C946B000C946B00B4
:100020000C946B000C946B000C946B000C946B00A4
:100030000C946B000C946B000C946B000C946B0094
:100040000C946B000C946B000C946B000C946B0084
:100050000C946B000C946B000C946B000C946B0074
:100060000C946B000C946B000C946B000C946B0064
:100070000C946B000C946B000C946B000C946B0054
:100080000C946B000C946B000C946B000C946B0044
:100090000C946B000C946B000C946B000C946B0034
:1000A0000C946B000C946B000C946B0011241FBE1D
:1000B000CFEFCDBFDFE2DEBF10E2A0E0B0E2E6EBC3
:1000C000F1E002C005900D92AE30B107D9F70E9461
:1000D000C2000C94D9000C94000082E08093500080
:1000E000E0E5F0E0818181FFFDCF88ED84BF81E014
:1000F000809340000895E0ECF9E093E0948397E169
:10010000968394EA97839381977F9383882331F032
:10011000E0E6F6E086858061868705C0E0E6F6E0E9
:1001200086858F7E8687E0E6F6E088E0818384E03E
:100130008283E0ECF9E0838188608383838180613E
:1001400083830895E0ECF9E0918195FFFDCF8093E2
:10015000C0090895CF93DF93EC018881882331F0A3
:1001600021960E94A20089918111FBCFDF91CF914E
:1001700008958091C10988231CF48091C0090895D5
:1001800080E008950E946D0080E00E947B000E9444
:10019000B9008A30E1F780E090E20E94AA002FEFD8
:1001A00089E698E1215080409040E1F700C00000CE
:0601B000EECFF894FFCF32
:0E01B60048454C4C4F20574F524C440A000015
:00000001FF
