S010000074657374554152542E7372656318
S113000010C02AC029C028C027C026C025C024C0CB
S113001023C022C021C020C01FC01EC01DC01CC0E0
S11300201BC011241FBECFE5D1E0DEBFCDBF10E061
S1130030A0E6B0E0E8E3F8E002C005900D92A8382D
S1130040B107D9F720E0A8E8B0E001C01D92AA38B2
S1130050B207E1F7FDD0EEC3D3CF80E886BD16BC6E
S11300608AB382688ABBD99A87B387BBC29A089538
S1130070FC019081862F80959823908395E39A952F
S1130080F1F7000040FF04C09081962B908303C0D9
S113009090819823908395E39A95F1F7000041FFAE
S11300A004C09081962B908303C090819823908301
S11300B095E39A95F1F7000042FF04C09081962BD6
S11300C0908303C090819823908395E39A95F1F7E8
S11300D0000043FF04C09081962B908303C090815D
S11300E09823908395E39A95F1F7000044FF04C0A8
S11300F09081962B908303C090819823908395E3FD
S11301009A95F1F7000045FF04C09081962B9083E7
S113011003C090819823908395E39A95F1F70000AA
S113012046FF04C09081962B908303C0908198234E
S1130130908395E39A95F1F70000442324F4808199
S1130140862B808303C090818923808385E38A95ED
S1130150F1F700008081682B608395E39A95F1F7AD
S1130160000085E38A95F1F700000895FF920F934C
S11301701F93CF93DF93EC01F62E8A01109289002E
S113018010928800E0918800F0918900E00FF11F3F
S113019040816F2DCE016CDF8091880090918900A1
S11301A001969093890080938800F801E80FF91F65
S11301B080818111E7CFDF91CF911F910F91FF9043
S11301C00895CF93DF9300D000D0CDB7DEB78091F0
S11301D061008F93809160008F9382E690E09F93FB
S11301E08F93CE0101969F938F9340D00F900F90E1
S11301F00F900F900F900F90B29920C080916000E3
S11302009091610001969093610080936000DF9A61
S113021045E650E062E08BE390E0A8DFAE014F5F7B
S11302205F4F62E08BE390E0A1DF46E750E062E0DD
S11302308BE390E09BDF80E090E003C0DF9881E0F7
S113024090E00F900F900F900F90DF91CF91089551
S113025004DF80E090E0B5DF2FEF34E34CE0215081
S113026030404040E1F700C00000F5CFAEE0B0E020
S1130270EBE3F1E0B6C20D891E8986E08C831A8314
S113028009838FEF9FE79E838D83AE01475E5F4FA7
S11302906F89788DCE01019608D0EF81F885E00F43
S11302A0F11F10822E96E4E0B8C2ABE0B0E0EAE5BC
S11302B0F1E089C26C017B018A01FC01178216827C
S11302C0838181FFC0C1CE0101963C01F601938177
S11302D0F70193FD859193FF81917F01882309F4B0
S11302E0AEC1853239F493FD859193FF81917F01ED
S11302F0853221F4B60190E0C1D1E8CF912C212CB4
S1130300312CFFE1F315E0F08B3279F038F48032D0
S113031079F08332A9F4232D206110C08D3259F075
S1130320803371F4232D216009C0832D8260382E1F
S1130330E32DE46022C0F32DF86025C0322E27C0DF
S113034037FC2DC020ED280F2A3088F436FE06C075
S1130350892D6AE02FD2922E980E19C0822D6AE060
S113036029D2222E280E832D8062382E10C08E3280
S113037031F436FC64C1E32DE0643E2E08C08C36B3
S113038021F4F32DF0683F2E02C0883641F4F701C2
S113039093FD859193FF81917F018111B2CF982FB5
S11303A09F7D9554933028F40C5F1F4F2FE32983CE
S11303B00DC0833631F0833771F0833509F055C0B1
S11303C020C0F801808189830E5F1F4F88248394A5
S11303D0912C530112C02801F2E04F0E511CF80178
S11303E0A080B18036FE03C0692D70E002C06FEFBB
S11303F07FEFC50138D14C018201F32DFF773F2EE9
S113040015C0280122E0420E511CF801A080B180E1
S113041036FE03C0692D70E002C06FEF7FEFC501A7
S113042017D14C01F32DF0683F2E820133FC19C023
S1130430822D90E088169906A0F4B60180E290E03F
S11304401DD12A94F5CFF50137FC859137FE8191B2
S11304505F01B60190E012D121102A9421E0821AA2
S113046091088114910479F7E1C0843611F089363A
S113047039F5F80137FE07C060817181828193816B
S11304800C5F1F4F08C060817181072E000C880B20
S1130490990B0E5F1F4FF32DFF763F2E97FF09C078
S11304A090958095709561957F4F8F4F9F4FF06821
S11304B03F2E2AE030E0A3011DD1882E861844C0C7
S11304C0853731F4232D2F7EB22E2AE030E025C06B
S11304D0932D997FB92E8F36C1F018F4883579F0B1
S11304E0AEC0803719F0883721F0A9C0E92FE06148
S11304F0BE2EB4FE0DC0FB2DF460BF2E09C034FE29
S11305000AC0292F2660B22E06C028E030E005C0BC
S113051020E130E002C020E132E0F801B7FE07C07C
S113052060817181828193810C5F1F4F06C060815D
S1130530718180E090E00E5F1F4FA301DBD0882E15
S11305408618FB2DFF773F2E36FE0DC0232D2E7F00
S1130550A22E891458F434FE0BC032FC09C0832D3A
S11305608E7EA82E05C0B82CA32C03C0B82C01C0C5
S1130570B92CA4FE0FC0FE01E80DF11D808180336B
S113058021F49A2D997EA92E09C0A2FE06C0B39427
S1130590B39404C08A2D867809F0B394A3FC10C0E8
S11305A0A0FE06C0B21480F4280C922C9B180DC037
S11305B0B21458F4B60180E290E060D0B394F8CF5E
S11305C0B21418F42B1802C0982C212CA4FE0FC0CE
S11305D0B60180E390E052D0A2FE16C0A1FC03C095
S11305E088E790E002C088E590E0B6010CC08A2D4F
S11305F0867851F0A1FE02C08BE201C080E2A7FC24
S11306008DE2B60190E03AD0891430F4B60180E36B
S113061090E034D09A94F8CF8A94F301E80DF11D58
S11306208081B60190E02AD08110F6CF222009F40F
S11306304DCEB60180E290E021D02A94F7CFF601A6
S11306408681978102C08FEF9FEF2B96E2E1D7C09E
S1130650FC010590615070400110D8F78095909589
S11306608E0F9F1F0895FC0161507040019001108E
S1130670D8F7809590958E0F9F1F08950F931F9321
S1130680CF93DF93FB01238121FD03C08FEF9FEF05
S11306902CC022FF16C04681578124813581421720
S11306A0530744F4A081B1819D012F5F3F4F3183F3
S11306B020838C93268137812F5F3F4F3783268396
S11306C014C08B01EC01FB010084F185E02D099538
S11306D0892BE1F6D80116968D919C911797019676
S11306E017969C938E931697CE01DF91CF911F910D
S11306F00F910895FA01AA27283061F1203191F170
S1130700E8946F936E7F6E5F7F4F8F4F9F4FAF4F15
S1130710B1E040D0B4E03ED0670F781F891F9A1F24
S1130720A11D680F791F8A1F911DA11D6A0F711DDC
S1130730811D911DA11D22D009F468943F91062EBC
S1130740000C3019000C000C3019305D3193CEF6DA
S1130750CF010895462F4770405D4193B3E00FD019
S1130760C9F7F6CF462F4F70405D4A3318F0495D04
S113077031FD4052419302D0A9F7EACFB4E0A695E7
S11307809795879577956795BA95C9F70097610509
S1130790710508959B01AC010A2E0694579547955F
S11307A037952795BA95C9F7620F731F841F951F54
S11307B0A01D0895002480FD060E660F11F0869595
S11307C0D1F7802D08952F923F924F925F926F92AE
S11307D07F928F929F92AF92BF92CF92DF92EF92CD
S11307E0FF920F931F93CF93DF93CDB7DEB7CA1B4E
S11307F0DB0B0FB6F894DEBF0FBECDBF09942A8879
S1130800398848885F846E847D848C849B84AA8420
S1130810B984C884DF80EE80FD800C811B81AA81AD
S1130820B981CE0FD11D0FB6F894DEBF0FBECDBF78
S10B0830ED010895F894FFCFD7
S113083801002564007072657373656420627574C1
S1130848746F6E3A2000206E756D626572206F6653
S10B08582074696D65730A0048
S9030000FC
